{
	"counter.sol": {
		"Counter": {
			"abi": [
				{
					"inputs": [],
					"name": "count",
					"outputs": [
						{
							"internalType": "uint256",
							"name": "",
							"type": "uint256"
						}
					],
					"stateMutability": "view",
					"type": "function"
				},
				{
					"inputs": [],
					"name": "decrease",
					"outputs": [
						{
							"internalType": "uint256",
							"name": "",
							"type": "uint256"
						}
					],
					"stateMutability": "nonpayable",
					"type": "function"
				},
				{
					"inputs": [],
					"name": "increase",
					"outputs": [
						{
							"internalType": "uint256",
							"name": "",
							"type": "uint256"
						}
					],
					"stateMutability": "nonpayable",
					"type": "function"
				}
			],
			"devdoc": {
				"kind": "dev",
				"methods": {},
				"version": 1
			},
			"evm": {
				"assembly": "    /* \"counter.sol\":57:392  contract Counter{... */\n  mstore(0x40, 0x80)\n    /* \"counter.sol\":155:156  0 */\n  0x00\n    /* \"counter.sol\":135:156  uint public count = 0 */\n  dup1\n  sstore\n    /* \"counter.sol\":57:392  contract Counter{... */\n  callvalue\n  dup1\n  iszero\n  tag_1\n  jumpi\n  0x00\n  dup1\n  revert\ntag_1:\n  pop\n  dataSize(sub_0)\n  dup1\n  dataOffset(sub_0)\n  0x00\n  codecopy\n  0x00\n  return\nstop\n\nsub_0: assembly {\n        /* \"counter.sol\":57:392  contract Counter{... */\n      mstore(0x40, 0x80)\n      callvalue\n      dup1\n      iszero\n      tag_1\n      jumpi\n      0x00\n      dup1\n      revert\n    tag_1:\n      pop\n      jumpi(tag_2, lt(calldatasize, 0x04))\n      shr(0xe0, calldataload(0x00))\n      dup1\n      0x06661abd\n      eq\n      tag_3\n      jumpi\n      dup1\n      0xd732d955\n      eq\n      tag_4\n      jumpi\n      dup1\n      0xe8927fbc\n      eq\n      tag_5\n      jumpi\n    tag_2:\n      0x00\n      dup1\n      revert\n        /* \"counter.sol\":135:156  uint public count = 0 */\n    tag_3:\n      tag_6\n      tag_7\n      jump\t// in\n    tag_6:\n      mload(0x40)\n      tag_8\n      swap2\n      swap1\n      tag_9\n      jump\t// in\n    tag_8:\n      mload(0x40)\n      dup1\n      swap2\n      sub\n      swap1\n      return\n        /* \"counter.sol\":316:390  function decrease() external returns(uint){... */\n    tag_4:\n      tag_10\n      tag_11\n      jump\t// in\n    tag_10:\n      mload(0x40)\n      tag_12\n      swap2\n      swap1\n      tag_9\n      jump\t// in\n    tag_12:\n      mload(0x40)\n      dup1\n      swap2\n      sub\n      swap1\n      return\n        /* \"counter.sol\":237:311  function increase() external returns(uint){... */\n    tag_5:\n      tag_13\n      tag_14\n      jump\t// in\n    tag_13:\n      mload(0x40)\n      tag_15\n      swap2\n      swap1\n      tag_9\n      jump\t// in\n    tag_15:\n      mload(0x40)\n      dup1\n      swap2\n      sub\n      swap1\n      return\n        /* \"counter.sol\":135:156  uint public count = 0 */\n    tag_7:\n      sload(0x00)\n      dup2\n      jump\t// out\n        /* \"counter.sol\":316:390  function decrease() external returns(uint){... */\n    tag_11:\n        /* \"counter.sol\":353:357  uint */\n      0x00\n        /* \"counter.sol\":382:383  1 */\n      0x01\n        /* \"counter.sol\":375:380  count */\n      0x00\n      dup1\n        /* \"counter.sol\":375:383  count-=1 */\n      dup3\n      dup3\n      sload\n      tag_17\n      swap2\n      swap1\n      tag_18\n      jump\t// in\n    tag_17:\n      swap3\n      pop\n      pop\n      dup2\n      swap1\n      sstore\n        /* \"counter.sol\":368:383  return count-=1 */\n      swap1\n      pop\n        /* \"counter.sol\":316:390  function decrease() external returns(uint){... */\n      swap1\n      jump\t// out\n        /* \"counter.sol\":237:311  function increase() external returns(uint){... */\n    tag_14:\n        /* \"counter.sol\":274:278  uint */\n      0x00\n        /* \"counter.sol\":303:304  1 */\n      0x01\n        /* \"counter.sol\":296:301  count */\n      0x00\n      dup1\n        /* \"counter.sol\":296:304  count+=1 */\n      dup3\n      dup3\n      sload\n      tag_20\n      swap2\n      swap1\n      tag_21\n      jump\t// in\n    tag_20:\n      swap3\n      pop\n      pop\n      dup2\n      swap1\n      sstore\n        /* \"counter.sol\":289:304  return count+=1 */\n      swap1\n      pop\n        /* \"counter.sol\":237:311  function increase() external returns(uint){... */\n      swap1\n      jump\t// out\n        /* \"#utility.yul\":7:125   */\n    tag_23:\n        /* \"#utility.yul\":94:118   */\n      tag_25\n        /* \"#utility.yul\":112:117   */\n      dup2\n        /* \"#utility.yul\":94:118   */\n      tag_26\n      jump\t// in\n    tag_25:\n        /* \"#utility.yul\":89:92   */\n      dup3\n        /* \"#utility.yul\":82:119   */\n      mstore\n        /* \"#utility.yul\":7:125   */\n      pop\n      pop\n      jump\t// out\n        /* \"#utility.yul\":131:353   */\n    tag_9:\n        /* \"#utility.yul\":224:228   */\n      0x00\n        /* \"#utility.yul\":262:264   */\n      0x20\n        /* \"#utility.yul\":251:260   */\n      dup3\n        /* \"#utility.yul\":247:265   */\n      add\n        /* \"#utility.yul\":239:265   */\n      swap1\n      pop\n        /* \"#utility.yul\":275:346   */\n      tag_28\n        /* \"#utility.yul\":343:344   */\n      0x00\n        /* \"#utility.yul\":332:341   */\n      dup4\n        /* \"#utility.yul\":328:345   */\n      add\n        /* \"#utility.yul\":319:325   */\n      dup5\n        /* \"#utility.yul\":275:346   */\n      tag_23\n      jump\t// in\n    tag_28:\n        /* \"#utility.yul\":131:353   */\n      swap3\n      swap2\n      pop\n      pop\n      jump\t// out\n        /* \"#utility.yul\":359:664   */\n    tag_21:\n        /* \"#utility.yul\":399:402   */\n      0x00\n        /* \"#utility.yul\":418:438   */\n      tag_30\n        /* \"#utility.yul\":436:437   */\n      dup3\n        /* \"#utility.yul\":418:438   */\n      tag_26\n      jump\t// in\n    tag_30:\n        /* \"#utility.yul\":413:438   */\n      swap2\n      pop\n        /* \"#utility.yul\":452:472   */\n      tag_31\n        /* \"#utility.yul\":470:471   */\n      dup4\n        /* \"#utility.yul\":452:472   */\n      tag_26\n      jump\t// in\n    tag_31:\n        /* \"#utility.yul\":447:472   */\n      swap3\n      pop\n        /* \"#utility.yul\":606:607   */\n      dup3\n        /* \"#utility.yul\":538:604   */\n      0xffffffffffffffffffffffffffffffffffffffffffffffffffffffffffffffff\n        /* \"#utility.yul\":534:608   */\n      sub\n        /* \"#utility.yul\":531:532   */\n      dup3\n        /* \"#utility.yul\":528:609   */\n      gt\n        /* \"#utility.yul\":525:632   */\n      iszero\n      tag_32\n      jumpi\n        /* \"#utility.yul\":612:630   */\n      tag_33\n      tag_34\n      jump\t// in\n    tag_33:\n        /* \"#utility.yul\":525:632   */\n    tag_32:\n        /* \"#utility.yul\":656:657   */\n      dup3\n        /* \"#utility.yul\":653:654   */\n      dup3\n        /* \"#utility.yul\":649:658   */\n      add\n        /* \"#utility.yul\":642:658   */\n      swap1\n      pop\n        /* \"#utility.yul\":359:664   */\n      swap3\n      swap2\n      pop\n      pop\n      jump\t// out\n        /* \"#utility.yul\":670:861   */\n    tag_18:\n        /* \"#utility.yul\":710:714   */\n      0x00\n        /* \"#utility.yul\":730:750   */\n      tag_36\n        /* \"#utility.yul\":748:749   */\n      dup3\n        /* \"#utility.yul\":730:750   */\n      tag_26\n      jump\t// in\n    tag_36:\n        /* \"#utility.yul\":725:750   */\n      swap2\n      pop\n        /* \"#utility.yul\":764:784   */\n      tag_37\n        /* \"#utility.yul\":782:783   */\n      dup4\n        /* \"#utility.yul\":764:784   */\n      tag_26\n      jump\t// in\n    tag_37:\n        /* \"#utility.yul\":759:784   */\n      swap3\n      pop\n        /* \"#utility.yul\":803:804   */\n      dup3\n        /* \"#utility.yul\":800:801   */\n      dup3\n        /* \"#utility.yul\":797:805   */\n      lt\n        /* \"#utility.yul\":794:828   */\n      iszero\n      tag_38\n      jumpi\n        /* \"#utility.yul\":808:826   */\n      tag_39\n      tag_34\n      jump\t// in\n    tag_39:\n        /* \"#utility.yul\":794:828   */\n    tag_38:\n        /* \"#utility.yul\":853:854   */\n      dup3\n        /* \"#utility.yul\":850:851   */\n      dup3\n        /* \"#utility.yul\":846:855   */\n      sub\n        /* \"#utility.yul\":838:855   */\n      swap1\n      pop\n        /* \"#utility.yul\":670:861   */\n      swap3\n      swap2\n      pop\n      pop\n      jump\t// out\n        /* \"#utility.yul\":867:944   */\n    tag_26:\n        /* \"#utility.yul\":904:911   */\n      0x00\n        /* \"#utility.yul\":933:938   */\n      dup2\n        /* \"#utility.yul\":922:938   */\n      swap1\n      pop\n        /* \"#utility.yul\":867:944   */\n      swap2\n      swap1\n      pop\n      jump\t// out\n        /* \"#utility.yul\":950:1130   */\n    tag_34:\n        /* \"#utility.yul\":998:1075   */\n      0x4e487b7100000000000000000000000000000000000000000000000000000000\n        /* \"#utility.yul\":995:996   */\n      0x00\n        /* \"#utility.yul\":988:1076   */\n      mstore\n        /* \"#utility.yul\":1095:1099   */\n      0x11\n        /* \"#utility.yul\":1092:1093   */\n      0x04\n        /* \"#utility.yul\":1085:1100   */\n      mstore\n        /* \"#utility.yul\":1119:1123   */\n      0x24\n        /* \"#utility.yul\":1116:1117   */\n      0x00\n        /* \"#utility.yul\":1109:1124   */\n      revert\n\n    auxdata: 0xa2646970667358221220d9494bff8c302702e574051373ff5797685f9184f207093b816feef7f3ca251464736f6c63430008070033\n}\n",
				"bytecode": {
					"linkReferences": {},
					"object": "60806040526000805534801561001457600080fd5b50610207806100246000396000f3fe608060405234801561001057600080fd5b50600436106100415760003560e01c806306661abd14610046578063d732d95514610064578063e8927fbc14610082575b600080fd5b61004e6100a0565b60405161005b91906100f3565b60405180910390f35b61006c6100a6565b60405161007991906100f3565b60405180910390f35b61008a6100c5565b60405161009791906100f3565b60405180910390f35b60005481565b600060016000808282546100ba9190610164565b925050819055905090565b600060016000808282546100d9919061010e565b925050819055905090565b6100ed81610198565b82525050565b600060208201905061010860008301846100e4565b92915050565b600061011982610198565b915061012483610198565b9250827fffffffffffffffffffffffffffffffffffffffffffffffffffffffffffffffff03821115610159576101586101a2565b5b828201905092915050565b600061016f82610198565b915061017a83610198565b92508282101561018d5761018c6101a2565b5b828203905092915050565b6000819050919050565b7f4e487b7100000000000000000000000000000000000000000000000000000000600052601160045260246000fdfea2646970667358221220d9494bff8c302702e574051373ff5797685f9184f207093b816feef7f3ca251464736f6c63430008070033",
					"opcodes": "PUSH1 0x80 PUSH1 0x40 MSTORE PUSH1 0x0 DUP1 SSTORE CALLVALUE DUP1 ISZERO PUSH2 0x14 JUMPI PUSH1 0x0 DUP1 REVERT JUMPDEST POP PUSH2 0x207 DUP1 PUSH2 0x24 PUSH1 0x0 CODECOPY PUSH1 0x0 RETURN INVALID PUSH1 0x80 PUSH1 0x40 MSTORE CALLVALUE DUP1 ISZERO PUSH2 0x10 JUMPI PUSH1 0x0 DUP1 REVERT JUMPDEST POP PUSH1 0x4 CALLDATASIZE LT PUSH2 0x41 JUMPI PUSH1 0x0 CALLDATALOAD PUSH1 0xE0 SHR DUP1 PUSH4 0x6661ABD EQ PUSH2 0x46 JUMPI DUP1 PUSH4 0xD732D955 EQ PUSH2 0x64 JUMPI DUP1 PUSH4 0xE8927FBC EQ PUSH2 0x82 JUMPI JUMPDEST PUSH1 0x0 DUP1 REVERT JUMPDEST PUSH2 0x4E PUSH2 0xA0 JUMP JUMPDEST PUSH1 0x40 MLOAD PUSH2 0x5B SWAP2 SWAP1 PUSH2 0xF3 JUMP JUMPDEST PUSH1 0x40 MLOAD DUP1 SWAP2 SUB SWAP1 RETURN JUMPDEST PUSH2 0x6C PUSH2 0xA6 JUMP JUMPDEST PUSH1 0x40 MLOAD PUSH2 0x79 SWAP2 SWAP1 PUSH2 0xF3 JUMP JUMPDEST PUSH1 0x40 MLOAD DUP1 SWAP2 SUB SWAP1 RETURN JUMPDEST PUSH2 0x8A PUSH2 0xC5 JUMP JUMPDEST PUSH1 0x40 MLOAD PUSH2 0x97 SWAP2 SWAP1 PUSH2 0xF3 JUMP JUMPDEST PUSH1 0x40 MLOAD DUP1 SWAP2 SUB SWAP1 RETURN JUMPDEST PUSH1 0x0 SLOAD DUP2 JUMP JUMPDEST PUSH1 0x0 PUSH1 0x1 PUSH1 0x0 DUP1 DUP3 DUP3 SLOAD PUSH2 0xBA SWAP2 SWAP1 PUSH2 0x164 JUMP JUMPDEST SWAP3 POP POP DUP2 SWAP1 SSTORE SWAP1 POP SWAP1 JUMP JUMPDEST PUSH1 0x0 PUSH1 0x1 PUSH1 0x0 DUP1 DUP3 DUP3 SLOAD PUSH2 0xD9 SWAP2 SWAP1 PUSH2 0x10E JUMP JUMPDEST SWAP3 POP POP DUP2 SWAP1 SSTORE SWAP1 POP SWAP1 JUMP JUMPDEST PUSH2 0xED DUP2 PUSH2 0x198 JUMP JUMPDEST DUP3 MSTORE POP POP JUMP JUMPDEST PUSH1 0x0 PUSH1 0x20 DUP3 ADD SWAP1 POP PUSH2 0x108 PUSH1 0x0 DUP4 ADD DUP5 PUSH2 0xE4 JUMP JUMPDEST SWAP3 SWAP2 POP POP JUMP JUMPDEST PUSH1 0x0 PUSH2 0x119 DUP3 PUSH2 0x198 JUMP JUMPDEST SWAP2 POP PUSH2 0x124 DUP4 PUSH2 0x198 JUMP JUMPDEST SWAP3 POP DUP3 PUSH32 0xFFFFFFFFFFFFFFFFFFFFFFFFFFFFFFFFFFFFFFFFFFFFFFFFFFFFFFFFFFFFFFFF SUB DUP3 GT ISZERO PUSH2 0x159 JUMPI PUSH2 0x158 PUSH2 0x1A2 JUMP JUMPDEST JUMPDEST DUP3 DUP3 ADD SWAP1 POP SWAP3 SWAP2 POP POP JUMP JUMPDEST PUSH1 0x0 PUSH2 0x16F DUP3 PUSH2 0x198 JUMP JUMPDEST SWAP2 POP PUSH2 0x17A DUP4 PUSH2 0x198 JUMP JUMPDEST SWAP3 POP DUP3 DUP3 LT ISZERO PUSH2 0x18D JUMPI PUSH2 0x18C PUSH2 0x1A2 JUMP JUMPDEST JUMPDEST DUP3 DUP3 SUB SWAP1 POP SWAP3 SWAP2 POP POP JUMP JUMPDEST PUSH1 0x0 DUP2 SWAP1 POP SWAP2 SWAP1 POP JUMP JUMPDEST PUSH32 0x4E487B7100000000000000000000000000000000000000000000000000000000 PUSH1 0x0 MSTORE PUSH1 0x11 PUSH1 0x4 MSTORE PUSH1 0x24 PUSH1 0x0 REVERT INVALID LOG2 PUSH5 0x6970667358 0x22 SLT KECCAK256 0xD9 0x49 0x4B SELFDESTRUCT DUP13 ADDRESS 0x27 MUL 0xE5 PUSH21 0x51373FF5797685F9184F207093B816FEEF7F3CA25 EQ PUSH5 0x736F6C6343 STOP ADDMOD SMOD STOP CALLER "
				},
				"gasEstimates": {
					"creation": {
						"codeDepositCost": "103800",
						"executionCost": "5159",
						"totalCost": "108959"
					},
					"external": {
						"count()": "2407",
						"decrease()": "infinite",
						"increase()": "infinite"
					}
				},
				"methodIdentifiers": {
					"count()": "06661abd",
					"decrease()": "d732d955",
					"increase()": "e8927fbc"
				}
			},
			"storageLayout": {
				"storage": [
					{
						"astId": 4,
						"contract": "counter.sol:Counter",
						"label": "count",
						"offset": 0,
						"slot": "0",
						"type": "t_uint256"
					}
				],
				"types": {
					"t_uint256": {
						"encoding": "inplace",
						"label": "uint256",
						"numberOfBytes": "32"
					}
				}
			},
			"userdoc": {
				"kind": "user",
				"methods": {},
				"version": 1
			}
		}
	}
}